{
  "contractName": "Myfirstcontract",
  "abi": [
    {
      "constant": false,
      "inputs": [
        {
          "internalType": "uint256",
          "name": "num",
          "type": "uint256"
        }
      ],
      "name": "setNumber",
      "outputs": [],
      "payable": false,
      "stateMutability": "nonpayable",
      "type": "function"
    },
    {
      "constant": true,
      "inputs": [],
      "name": "getNumber",
      "outputs": [
        {
          "internalType": "uint256",
          "name": "",
          "type": "uint256"
        }
      ],
      "payable": false,
      "stateMutability": "view",
      "type": "function"
    }
  ],
  "bytecode": "0x6080604052348015600f57600080fd5b5060a98061001e6000396000f3fe6080604052348015600f57600080fd5b506004361060325760003560e01c80633fb5c1cb146037578063f2c9ecd8146053575b600080fd5b605160048036036020811015604b57600080fd5b5035606b565b005b6059606e565b60408051918252519081900360200190f35b50565b6000549056fea265627a7a7231582026865201e02ca6d12b6f59752f14a82f800b0fff9110ab6d78d92a52102e95f164736f6c63430005100032",
  "source": "// SPDX-License-Identifier: GPL-3.0 \r\npragma solidity >=0.5.0 <0.9.0;\r\n\r\ncontract Myfirstcontract{\r\n\r\nuint number;\r\n function setNumber(uint num) public{\r\n   num=number+1;\r\n\r\n }\r\n function getNumber () public view returns(uint){\r\n  return number;\r\n }\r\n\r\n\r\n}\r\n\r\n\r\n\r\n",
  "sourcePath": "D:\\WEBDEVELOPMENT\\BlockchainUpdateset\\web\\contracts\\Createfist.sol",
  "compiler": {
    "name": "solc",
    "version": "0.5.16+commit.9c3226ce.Emscripten.clang"
  },
  "schemaVersion": "3.4.16",
  "updatedAt": "2023-09-09T07:52:44.973Z",
  "networkType": "ethereum",
  "devdoc": {
    "methods": {}
  },
  "userdoc": {
    "methods": {}
  }
}